{
	"bigmcoin.sol": {
		"BigMcoins": {
			"abi": [
				{
					"constant": true,
					"inputs": [
						{
							"name": "investor",
							"type": "address"
						}
					],
					"name": "equity_in_usd",
					"outputs": [
						{
							"name": "",
							"type": "uint256"
						}
					],
					"payable": false,
					"stateMutability": "view",
					"type": "function"
				},
				{
					"constant": true,
					"inputs": [
						{
							"name": "investor",
							"type": "address"
						}
					],
					"name": "equity_in_bigmcoins",
					"outputs": [
						{
							"name": "",
							"type": "uint256"
						}
					],
					"payable": false,
					"stateMutability": "view",
					"type": "function"
				},
				{
					"constant": true,
					"inputs": [],
					"name": "usd_to_bigmcoins",
					"outputs": [
						{
							"name": "",
							"type": "uint256"
						}
					],
					"payable": false,
					"stateMutability": "view",
					"type": "function"
				},
				{
					"constant": true,
					"inputs": [],
					"name": "total_bigmcoins_bought",
					"outputs": [
						{
							"name": "",
							"type": "uint256"
						}
					],
					"payable": false,
					"stateMutability": "view",
					"type": "function"
				},
				{
					"constant": false,
					"inputs": [
						{
							"name": "investor",
							"type": "address"
						},
						{
							"name": "bigmcoins_sold",
							"type": "uint256"
						}
					],
					"name": "sell_bigmcoins",
					"outputs": [],
					"payable": false,
					"stateMutability": "nonpayable",
					"type": "function"
				},
				{
					"constant": false,
					"inputs": [
						{
							"name": "investor",
							"type": "address"
						},
						{
							"name": "usd_invested",
							"type": "uint256"
						}
					],
					"name": "buy_bigmcoins",
					"outputs": [],
					"payable": false,
					"stateMutability": "nonpayable",
					"type": "function"
				},
				{
					"constant": true,
					"inputs": [],
					"name": "max_bigmcoins",
					"outputs": [
						{
							"name": "",
							"type": "uint256"
						}
					],
					"payable": false,
					"stateMutability": "view",
					"type": "function"
				}
			],
			"devdoc": {
				"methods": {}
			},
			"evm": {
				"assembly": "    /* \"bigmcoin.sol\":74:1761  contract BigMcoins {\r... */\n  mstore(0x40, 0x80)\n    /* \"bigmcoin.sol\":178:186  10000000 */\n  0x989680\n    /* \"bigmcoin.sol\":150:186  uint public max_bigmcoins = 10000000 */\n  0x0\n  sstore\n    /* \"bigmcoin.sol\":279:282  100 */\n  0x64\n    /* \"bigmcoin.sol\":248:282  uint public usd_to_bigmcoins = 100 */\n  0x1\n  sstore\n    /* \"bigmcoin.sol\":387:388  0 */\n  0x0\n    /* \"bigmcoin.sol\":350:388  uint public total_bigmcoins_bought = 0 */\n  0x2\n  sstore\n    /* \"bigmcoin.sol\":74:1761  contract BigMcoins {\r... */\n  callvalue\n    /* \"--CODEGEN--\":8:17   */\n  dup1\n    /* \"--CODEGEN--\":5:7   */\n  iszero\n  tag_1\n  jumpi\n    /* \"--CODEGEN--\":30:31   */\n  0x0\n    /* \"--CODEGEN--\":27:28   */\n  dup1\n    /* \"--CODEGEN--\":20:32   */\n  revert\n    /* \"--CODEGEN--\":5:7   */\ntag_1:\n    /* \"bigmcoin.sol\":74:1761  contract BigMcoins {\r... */\n  pop\n  dataSize(sub_0)\n  dup1\n  dataOffset(sub_0)\n  0x0\n  codecopy\n  0x0\n  return\nstop\n\nsub_0: assembly {\n        /* \"bigmcoin.sol\":74:1761  contract BigMcoins {\r... */\n      mstore(0x40, 0x80)\n      jumpi(tag_1, lt(calldatasize, 0x4))\n      calldataload(0x0)\n      0x100000000000000000000000000000000000000000000000000000000\n      swap1\n      div\n      0xffffffff\n      and\n      dup1\n      0x10c51c1b\n      eq\n      tag_2\n      jumpi\n      dup1\n      0x2421e7ba\n      eq\n      tag_3\n      jumpi\n      dup1\n      0x3f7d67d5\n      eq\n      tag_4\n      jumpi\n      dup1\n      0x43b207a5\n      eq\n      tag_5\n      jumpi\n      dup1\n      0x887fefe3\n      eq\n      tag_6\n      jumpi\n      dup1\n      0x8eb81a0c\n      eq\n      tag_7\n      jumpi\n      dup1\n      0xa9726e5c\n      eq\n      tag_8\n      jumpi\n    tag_1:\n      0x0\n      dup1\n      revert\n        /* \"bigmcoin.sol\":1000:1113  function equity_in_usd(address investor) external constant returns(uint) {\r... */\n    tag_2:\n      callvalue\n        /* \"--CODEGEN--\":8:17   */\n      dup1\n        /* \"--CODEGEN--\":5:7   */\n      iszero\n      tag_9\n      jumpi\n        /* \"--CODEGEN--\":30:31   */\n      0x0\n        /* \"--CODEGEN--\":27:28   */\n      dup1\n        /* \"--CODEGEN--\":20:32   */\n      revert\n        /* \"--CODEGEN--\":5:7   */\n    tag_9:\n        /* \"bigmcoin.sol\":1000:1113  function equity_in_usd(address investor) external constant returns(uint) {\r... */\n      pop\n      tag_10\n      0x4\n      dup1\n      calldatasize\n      sub\n      dup2\n      add\n      swap1\n      dup1\n      dup1\n      calldataload\n      0xffffffffffffffffffffffffffffffffffffffff\n      and\n      swap1\n      0x20\n      add\n      swap1\n      swap3\n      swap2\n      swap1\n      pop\n      pop\n      pop\n      jump(tag_11)\n    tag_10:\n      mload(0x40)\n      dup1\n      dup3\n      dup2\n      mstore\n      0x20\n      add\n      swap2\n      pop\n      pop\n      mload(0x40)\n      dup1\n      swap2\n      sub\n      swap1\n      return\n        /* \"bigmcoin.sol\":818:944  function equity_in_bigmcoins(address investor) external constant returns (uint) {\r... */\n    tag_3:\n      callvalue\n        /* \"--CODEGEN--\":8:17   */\n      dup1\n        /* \"--CODEGEN--\":5:7   */\n      iszero\n      tag_12\n      jumpi\n        /* \"--CODEGEN--\":30:31   */\n      0x0\n        /* \"--CODEGEN--\":27:28   */\n      dup1\n        /* \"--CODEGEN--\":20:32   */\n      revert\n        /* \"--CODEGEN--\":5:7   */\n    tag_12:\n        /* \"bigmcoin.sol\":818:944  function equity_in_bigmcoins(address investor) external constant returns (uint) {\r... */\n      pop\n      tag_13\n      0x4\n      dup1\n      calldatasize\n      sub\n      dup2\n      add\n      swap1\n      dup1\n      dup1\n      calldataload\n      0xffffffffffffffffffffffffffffffffffffffff\n      and\n      swap1\n      0x20\n      add\n      swap1\n      swap3\n      swap2\n      swap1\n      pop\n      pop\n      pop\n      jump(tag_14)\n    tag_13:\n      mload(0x40)\n      dup1\n      dup3\n      dup2\n      mstore\n      0x20\n      add\n      swap2\n      pop\n      pop\n      mload(0x40)\n      dup1\n      swap2\n      sub\n      swap1\n      return\n        /* \"bigmcoin.sol\":248:282  uint public usd_to_bigmcoins = 100 */\n    tag_4:\n      callvalue\n        /* \"--CODEGEN--\":8:17   */\n      dup1\n        /* \"--CODEGEN--\":5:7   */\n      iszero\n      tag_15\n      jumpi\n        /* \"--CODEGEN--\":30:31   */\n      0x0\n        /* \"--CODEGEN--\":27:28   */\n      dup1\n        /* \"--CODEGEN--\":20:32   */\n      revert\n        /* \"--CODEGEN--\":5:7   */\n    tag_15:\n        /* \"bigmcoin.sol\":248:282  uint public usd_to_bigmcoins = 100 */\n      pop\n      tag_16\n      jump(tag_17)\n    tag_16:\n      mload(0x40)\n      dup1\n      dup3\n      dup2\n      mstore\n      0x20\n      add\n      swap2\n      pop\n      pop\n      mload(0x40)\n      dup1\n      swap2\n      sub\n      swap1\n      return\n        /* \"bigmcoin.sol\":350:388  uint public total_bigmcoins_bought = 0 */\n    tag_5:\n      callvalue\n        /* \"--CODEGEN--\":8:17   */\n      dup1\n        /* \"--CODEGEN--\":5:7   */\n      iszero\n      tag_18\n      jumpi\n        /* \"--CODEGEN--\":30:31   */\n      0x0\n        /* \"--CODEGEN--\":27:28   */\n      dup1\n        /* \"--CODEGEN--\":20:32   */\n      revert\n        /* \"--CODEGEN--\":5:7   */\n    tag_18:\n        /* \"bigmcoin.sol\":350:388  uint public total_bigmcoins_bought = 0 */\n      pop\n      tag_19\n      jump(tag_20)\n    tag_19:\n      mload(0x40)\n      dup1\n      dup3\n      dup2\n      mstore\n      0x20\n      add\n      swap2\n      pop\n      pop\n      mload(0x40)\n      dup1\n      swap2\n      sub\n      swap1\n      return\n        /* \"bigmcoin.sol\":1515:1757  function sell_bigmcoins(address investor, uint bigmcoins_sold) external {\r... */\n    tag_6:\n      callvalue\n        /* \"--CODEGEN--\":8:17   */\n      dup1\n        /* \"--CODEGEN--\":5:7   */\n      iszero\n      tag_21\n      jumpi\n        /* \"--CODEGEN--\":30:31   */\n      0x0\n        /* \"--CODEGEN--\":27:28   */\n      dup1\n        /* \"--CODEGEN--\":20:32   */\n      revert\n        /* \"--CODEGEN--\":5:7   */\n    tag_21:\n        /* \"bigmcoin.sol\":1515:1757  function sell_bigmcoins(address investor, uint bigmcoins_sold) external {\r... */\n      pop\n      tag_22\n      0x4\n      dup1\n      calldatasize\n      sub\n      dup2\n      add\n      swap1\n      dup1\n      dup1\n      calldataload\n      0xffffffffffffffffffffffffffffffffffffffff\n      and\n      swap1\n      0x20\n      add\n      swap1\n      swap3\n      swap2\n      swap1\n      dup1\n      calldataload\n      swap1\n      0x20\n      add\n      swap1\n      swap3\n      swap2\n      swap1\n      pop\n      pop\n      pop\n      jump(tag_23)\n    tag_22:\n      stop\n        /* \"bigmcoin.sol\":1142:1484  function buy_bigmcoins(address investor, uint usd_invested) external\r... */\n    tag_7:\n      callvalue\n        /* \"--CODEGEN--\":8:17   */\n      dup1\n        /* \"--CODEGEN--\":5:7   */\n      iszero\n      tag_24\n      jumpi\n        /* \"--CODEGEN--\":30:31   */\n      0x0\n        /* \"--CODEGEN--\":27:28   */\n      dup1\n        /* \"--CODEGEN--\":20:32   */\n      revert\n        /* \"--CODEGEN--\":5:7   */\n    tag_24:\n        /* \"bigmcoin.sol\":1142:1484  function buy_bigmcoins(address investor, uint usd_invested) external\r... */\n      pop\n      tag_25\n      0x4\n      dup1\n      calldatasize\n      sub\n      dup2\n      add\n      swap1\n      dup1\n      dup1\n      calldataload\n      0xffffffffffffffffffffffffffffffffffffffff\n      and\n      swap1\n      0x20\n      add\n      swap1\n      swap3\n      swap2\n      swap1\n      dup1\n      calldataload\n      swap1\n      0x20\n      add\n      swap1\n      swap3\n      swap2\n      swap1\n      pop\n      pop\n      pop\n      jump(tag_26)\n    tag_25:\n      stop\n        /* \"bigmcoin.sol\":150:186  uint public max_bigmcoins = 10000000 */\n    tag_8:\n      callvalue\n        /* \"--CODEGEN--\":8:17   */\n      dup1\n        /* \"--CODEGEN--\":5:7   */\n      iszero\n      tag_27\n      jumpi\n        /* \"--CODEGEN--\":30:31   */\n      0x0\n        /* \"--CODEGEN--\":27:28   */\n      dup1\n        /* \"--CODEGEN--\":20:32   */\n      revert\n        /* \"--CODEGEN--\":5:7   */\n    tag_27:\n        /* \"bigmcoin.sol\":150:186  uint public max_bigmcoins = 10000000 */\n      pop\n      tag_28\n      jump(tag_29)\n    tag_28:\n      mload(0x40)\n      dup1\n      dup3\n      dup2\n      mstore\n      0x20\n      add\n      swap2\n      pop\n      pop\n      mload(0x40)\n      dup1\n      swap2\n      sub\n      swap1\n      return\n        /* \"bigmcoin.sol\":1000:1113  function equity_in_usd(address investor) external constant returns(uint) {\r... */\n    tag_11:\n        /* \"bigmcoin.sol\":1067:1071  uint */\n      0x0\n        /* \"bigmcoin.sol\":1086:1096  equity_usd */\n      0x4\n        /* \"bigmcoin.sol\":1086:1106  equity_usd[investor] */\n      0x0\n        /* \"bigmcoin.sol\":1097:1105  investor */\n      dup4\n        /* \"bigmcoin.sol\":1086:1106  equity_usd[investor] */\n      0xffffffffffffffffffffffffffffffffffffffff\n      and\n      0xffffffffffffffffffffffffffffffffffffffff\n      and\n      dup2\n      mstore\n      0x20\n      add\n      swap1\n      dup2\n      mstore\n      0x20\n      add\n      0x0\n      keccak256\n      sload\n        /* \"bigmcoin.sol\":1079:1106  return equity_usd[investor] */\n      swap1\n      pop\n        /* \"bigmcoin.sol\":1000:1113  function equity_in_usd(address investor) external constant returns(uint) {\r... */\n      swap2\n      swap1\n      pop\n      jump\t// out\n        /* \"bigmcoin.sol\":818:944  function equity_in_bigmcoins(address investor) external constant returns (uint) {\r... */\n    tag_14:\n        /* \"bigmcoin.sol\":892:896  uint */\n      0x0\n        /* \"bigmcoin.sol\":911:927  equity_bigmcoins */\n      0x3\n        /* \"bigmcoin.sol\":911:937  equity_bigmcoins[investor] */\n      0x0\n        /* \"bigmcoin.sol\":928:936  investor */\n      dup4\n        /* \"bigmcoin.sol\":911:937  equity_bigmcoins[investor] */\n      0xffffffffffffffffffffffffffffffffffffffff\n      and\n      0xffffffffffffffffffffffffffffffffffffffff\n      and\n      dup2\n      mstore\n      0x20\n      add\n      swap1\n      dup2\n      mstore\n      0x20\n      add\n      0x0\n      keccak256\n      sload\n        /* \"bigmcoin.sol\":904:937  return equity_bigmcoins[investor] */\n      swap1\n      pop\n        /* \"bigmcoin.sol\":818:944  function equity_in_bigmcoins(address investor) external constant returns (uint) {\r... */\n      swap2\n      swap1\n      pop\n      jump\t// out\n        /* \"bigmcoin.sol\":248:282  uint public usd_to_bigmcoins = 100 */\n    tag_17:\n      sload(0x1)\n      dup2\n      jump\t// out\n        /* \"bigmcoin.sol\":350:388  uint public total_bigmcoins_bought = 0 */\n    tag_20:\n      sload(0x2)\n      dup2\n      jump\t// out\n        /* \"bigmcoin.sol\":1515:1757  function sell_bigmcoins(address investor, uint bigmcoins_sold) external {\r... */\n    tag_23:\n        /* \"bigmcoin.sol\":1625:1639  bigmcoins_sold */\n      dup1\n        /* \"bigmcoin.sol\":1595:1611  equity_bigmcoins */\n      0x3\n        /* \"bigmcoin.sol\":1595:1621  equity_bigmcoins[investor] */\n      0x0\n        /* \"bigmcoin.sol\":1612:1620  investor */\n      dup5\n        /* \"bigmcoin.sol\":1595:1621  equity_bigmcoins[investor] */\n      0xffffffffffffffffffffffffffffffffffffffff\n      and\n      0xffffffffffffffffffffffffffffffffffffffff\n      and\n      dup2\n      mstore\n      0x20\n      add\n      swap1\n      dup2\n      mstore\n      0x20\n      add\n      0x0\n      keccak256\n      0x0\n        /* \"bigmcoin.sol\":1595:1639  equity_bigmcoins[investor] -= bigmcoins_sold */\n      dup3\n      dup3\n      sload\n      sub\n      swap3\n      pop\n      pop\n      dup2\n      swap1\n      sstore\n      pop\n        /* \"bigmcoin.sol\":1699:1702  100 */\n      0x64\n        /* \"bigmcoin.sol\":1670:1686  equity_bigmcoins */\n      0x3\n        /* \"bigmcoin.sol\":1670:1696  equity_bigmcoins[investor] */\n      0x0\n        /* \"bigmcoin.sol\":1687:1695  investor */\n      dup5\n        /* \"bigmcoin.sol\":1670:1696  equity_bigmcoins[investor] */\n      0xffffffffffffffffffffffffffffffffffffffff\n      and\n      0xffffffffffffffffffffffffffffffffffffffff\n      and\n      dup2\n      mstore\n      0x20\n      add\n      swap1\n      dup2\n      mstore\n      0x20\n      add\n      0x0\n      keccak256\n      sload\n        /* \"bigmcoin.sol\":1670:1702  equity_bigmcoins[investor] / 100 */\n      dup2\n      iszero\n      iszero\n      tag_33\n      jumpi\n      invalid\n    tag_33:\n      div\n        /* \"bigmcoin.sol\":1647:1657  equity_usd */\n      0x4\n        /* \"bigmcoin.sol\":1647:1667  equity_usd[investor] */\n      0x0\n        /* \"bigmcoin.sol\":1658:1666  investor */\n      dup5\n        /* \"bigmcoin.sol\":1647:1667  equity_usd[investor] */\n      0xffffffffffffffffffffffffffffffffffffffff\n      and\n      0xffffffffffffffffffffffffffffffffffffffff\n      and\n      dup2\n      mstore\n      0x20\n      add\n      swap1\n      dup2\n      mstore\n      0x20\n      add\n      0x0\n      keccak256\n        /* \"bigmcoin.sol\":1647:1702  equity_usd[investor] = equity_bigmcoins[investor] / 100 */\n      dup2\n      swap1\n      sstore\n      pop\n        /* \"bigmcoin.sol\":1736:1750  bigmcoins_sold */\n      dup1\n        /* \"bigmcoin.sol\":1710:1732  total_bigmcoins_bought */\n      0x2\n      0x0\n        /* \"bigmcoin.sol\":1710:1750  total_bigmcoins_bought -= bigmcoins_sold */\n      dup3\n      dup3\n      sload\n      sub\n      swap3\n      pop\n      pop\n      dup2\n      swap1\n      sstore\n      pop\n        /* \"bigmcoin.sol\":1515:1757  function sell_bigmcoins(address investor, uint bigmcoins_sold) external {\r... */\n      pop\n      pop\n      jump\t// out\n        /* \"bigmcoin.sol\":1142:1484  function buy_bigmcoins(address investor, uint usd_invested) external\r... */\n    tag_26:\n        /* \"bigmcoin.sol\":1255:1276  uint bigmcoins_bought */\n      0x0\n        /* \"bigmcoin.sol\":1233:1245  usd_invested */\n      dup2\n        /* \"bigmcoin.sol\":726:739  max_bigmcoins */\n      sload(0x0)\n        /* \"bigmcoin.sol\":700:722  total_bigmcoins_bought */\n      sload(0x2)\n        /* \"bigmcoin.sol\":685:697  usd_invested */\n      dup3\n        /* \"bigmcoin.sol\":670:682  usd_invested */\n      dup4\n        /* \"bigmcoin.sol\":670:697  usd_invested * usd_invested */\n      mul\n        /* \"bigmcoin.sol\":670:722  usd_invested * usd_invested + total_bigmcoins_bought */\n      add\n        /* \"bigmcoin.sol\":670:739  usd_invested * usd_invested + total_bigmcoins_bought <= max_bigmcoins */\n      gt\n      iszero\n        /* \"bigmcoin.sol\":661:740  require (usd_invested * usd_invested + total_bigmcoins_bought <= max_bigmcoins) */\n      iszero\n      iszero\n      tag_35\n      jumpi\n      0x0\n      dup1\n      revert\n    tag_35:\n        /* \"bigmcoin.sol\":1294:1310  usd_to_bigmcoins */\n      sload(0x1)\n        /* \"bigmcoin.sol\":1279:1291  usd_invested */\n      dup4\n        /* \"bigmcoin.sol\":1279:1310  usd_invested * usd_to_bigmcoins */\n      mul\n        /* \"bigmcoin.sol\":1255:1310  uint bigmcoins_bought = usd_invested * usd_to_bigmcoins */\n      swap2\n      pop\n        /* \"bigmcoin.sol\":1348:1364  bigmcoins_bought */\n      dup2\n        /* \"bigmcoin.sol\":1318:1334  equity_bigmcoins */\n      0x3\n        /* \"bigmcoin.sol\":1318:1344  equity_bigmcoins[investor] */\n      0x0\n        /* \"bigmcoin.sol\":1335:1343  investor */\n      dup7\n        /* \"bigmcoin.sol\":1318:1344  equity_bigmcoins[investor] */\n      0xffffffffffffffffffffffffffffffffffffffff\n      and\n      0xffffffffffffffffffffffffffffffffffffffff\n      and\n      dup2\n      mstore\n      0x20\n      add\n      swap1\n      dup2\n      mstore\n      0x20\n      add\n      0x0\n      keccak256\n      0x0\n        /* \"bigmcoin.sol\":1318:1364  equity_bigmcoins[investor] += bigmcoins_bought */\n      dup3\n      dup3\n      sload\n      add\n      swap3\n      pop\n      pop\n      dup2\n      swap1\n      sstore\n      pop\n        /* \"bigmcoin.sol\":1424:1427  100 */\n      0x64\n        /* \"bigmcoin.sol\":1395:1411  equity_bigmcoins */\n      0x3\n        /* \"bigmcoin.sol\":1395:1421  equity_bigmcoins[investor] */\n      0x0\n        /* \"bigmcoin.sol\":1412:1420  investor */\n      dup7\n        /* \"bigmcoin.sol\":1395:1421  equity_bigmcoins[investor] */\n      0xffffffffffffffffffffffffffffffffffffffff\n      and\n      0xffffffffffffffffffffffffffffffffffffffff\n      and\n      dup2\n      mstore\n      0x20\n      add\n      swap1\n      dup2\n      mstore\n      0x20\n      add\n      0x0\n      keccak256\n      sload\n        /* \"bigmcoin.sol\":1395:1427  equity_bigmcoins[investor] / 100 */\n      dup2\n      iszero\n      iszero\n      tag_37\n      jumpi\n      invalid\n    tag_37:\n      div\n        /* \"bigmcoin.sol\":1372:1382  equity_usd */\n      0x4\n        /* \"bigmcoin.sol\":1372:1392  equity_usd[investor] */\n      0x0\n        /* \"bigmcoin.sol\":1383:1391  investor */\n      dup7\n        /* \"bigmcoin.sol\":1372:1392  equity_usd[investor] */\n      0xffffffffffffffffffffffffffffffffffffffff\n      and\n      0xffffffffffffffffffffffffffffffffffffffff\n      and\n      dup2\n      mstore\n      0x20\n      add\n      swap1\n      dup2\n      mstore\n      0x20\n      add\n      0x0\n      keccak256\n        /* \"bigmcoin.sol\":1372:1427  equity_usd[investor] = equity_bigmcoins[investor] / 100 */\n      dup2\n      swap1\n      sstore\n      pop\n        /* \"bigmcoin.sol\":1461:1477  bigmcoins_bought */\n      dup2\n        /* \"bigmcoin.sol\":1435:1457  total_bigmcoins_bought */\n      0x2\n      0x0\n        /* \"bigmcoin.sol\":1435:1477  total_bigmcoins_bought += bigmcoins_bought */\n      dup3\n      dup3\n      sload\n      add\n      swap3\n      pop\n      pop\n      dup2\n      swap1\n      sstore\n      pop\n        /* \"bigmcoin.sol\":1142:1484  function buy_bigmcoins(address investor, uint usd_invested) external\r... */\n      pop\n      pop\n      pop\n      pop\n      jump\t// out\n        /* \"bigmcoin.sol\":150:186  uint public max_bigmcoins = 10000000 */\n    tag_29:\n      sload(0x0)\n      dup2\n      jump\t// out\n\n    auxdata: 0xa165627a7a72305820d3f68bd0f3f01b19bd83598a1630ec237ea136667f3e815cd05d6d922a2dd9300029\n}\n",
				"bytecode": {
					"linkReferences": {},
					"object": "6080604052629896806000556064600155600060025534801561002157600080fd5b50610524806100316000396000f300608060405260043610610083576000357c0100000000000000000000000000000000000000000000000000000000900463ffffffff16806310c51c1b146100885780632421e7ba146100df5780633f7d67d51461013657806343b207a514610161578063887fefe31461018c5780638eb81a0c146101d9578063a9726e5c14610226575b600080fd5b34801561009457600080fd5b506100c9600480360381019080803573ffffffffffffffffffffffffffffffffffffffff169060200190929190505050610251565b6040518082815260200191505060405180910390f35b3480156100eb57600080fd5b50610120600480360381019080803573ffffffffffffffffffffffffffffffffffffffff16906020019092919050505061029a565b6040518082815260200191505060405180910390f35b34801561014257600080fd5b5061014b6102e3565b6040518082815260200191505060405180910390f35b34801561016d57600080fd5b506101766102e9565b6040518082815260200191505060405180910390f35b34801561019857600080fd5b506101d7600480360381019080803573ffffffffffffffffffffffffffffffffffffffff169060200190929190803590602001909291905050506102ef565b005b3480156101e557600080fd5b50610224600480360381019080803573ffffffffffffffffffffffffffffffffffffffff169060200190929190803590602001909291905050506103df565b005b34801561023257600080fd5b5061023b6104f2565b6040518082815260200191505060405180910390f35b6000600460008373ffffffffffffffffffffffffffffffffffffffff1673ffffffffffffffffffffffffffffffffffffffff168152602001908152602001600020549050919050565b6000600360008373ffffffffffffffffffffffffffffffffffffffff1673ffffffffffffffffffffffffffffffffffffffff168152602001908152602001600020549050919050565b60015481565b60025481565b80600360008473ffffffffffffffffffffffffffffffffffffffff1673ffffffffffffffffffffffffffffffffffffffff168152602001908152602001600020600082825403925050819055506064600360008473ffffffffffffffffffffffffffffffffffffffff1673ffffffffffffffffffffffffffffffffffffffff1681526020019081526020016000205481151561038757fe5b04600460008473ffffffffffffffffffffffffffffffffffffffff1673ffffffffffffffffffffffffffffffffffffffff16815260200190815260200160002081905550806002600082825403925050819055505050565b60008160005460025482830201111515156103f957600080fd5b6001548302915081600360008673ffffffffffffffffffffffffffffffffffffffff1673ffffffffffffffffffffffffffffffffffffffff168152602001908152602001600020600082825401925050819055506064600360008673ffffffffffffffffffffffffffffffffffffffff1673ffffffffffffffffffffffffffffffffffffffff1681526020019081526020016000205481151561049857fe5b04600460008673ffffffffffffffffffffffffffffffffffffffff1673ffffffffffffffffffffffffffffffffffffffff168152602001908152602001600020819055508160026000828254019250508190555050505050565b600054815600a165627a7a72305820d3f68bd0f3f01b19bd83598a1630ec237ea136667f3e815cd05d6d922a2dd9300029",
					"opcodes": "PUSH1 0x80 PUSH1 0x40 MSTORE PUSH3 0x989680 PUSH1 0x0 SSTORE PUSH1 0x64 PUSH1 0x1 SSTORE PUSH1 0x0 PUSH1 0x2 SSTORE CALLVALUE DUP1 ISZERO PUSH2 0x21 JUMPI PUSH1 0x0 DUP1 REVERT JUMPDEST POP PUSH2 0x524 DUP1 PUSH2 0x31 PUSH1 0x0 CODECOPY PUSH1 0x0 RETURN STOP PUSH1 0x80 PUSH1 0x40 MSTORE PUSH1 0x4 CALLDATASIZE LT PUSH2 0x83 JUMPI PUSH1 0x0 CALLDATALOAD PUSH29 0x100000000000000000000000000000000000000000000000000000000 SWAP1 DIV PUSH4 0xFFFFFFFF AND DUP1 PUSH4 0x10C51C1B EQ PUSH2 0x88 JUMPI DUP1 PUSH4 0x2421E7BA EQ PUSH2 0xDF JUMPI DUP1 PUSH4 0x3F7D67D5 EQ PUSH2 0x136 JUMPI DUP1 PUSH4 0x43B207A5 EQ PUSH2 0x161 JUMPI DUP1 PUSH4 0x887FEFE3 EQ PUSH2 0x18C JUMPI DUP1 PUSH4 0x8EB81A0C EQ PUSH2 0x1D9 JUMPI DUP1 PUSH4 0xA9726E5C EQ PUSH2 0x226 JUMPI JUMPDEST PUSH1 0x0 DUP1 REVERT JUMPDEST CALLVALUE DUP1 ISZERO PUSH2 0x94 JUMPI PUSH1 0x0 DUP1 REVERT JUMPDEST POP PUSH2 0xC9 PUSH1 0x4 DUP1 CALLDATASIZE SUB DUP2 ADD SWAP1 DUP1 DUP1 CALLDATALOAD PUSH20 0xFFFFFFFFFFFFFFFFFFFFFFFFFFFFFFFFFFFFFFFF AND SWAP1 PUSH1 0x20 ADD SWAP1 SWAP3 SWAP2 SWAP1 POP POP POP PUSH2 0x251 JUMP JUMPDEST PUSH1 0x40 MLOAD DUP1 DUP3 DUP2 MSTORE PUSH1 0x20 ADD SWAP2 POP POP PUSH1 0x40 MLOAD DUP1 SWAP2 SUB SWAP1 RETURN JUMPDEST CALLVALUE DUP1 ISZERO PUSH2 0xEB JUMPI PUSH1 0x0 DUP1 REVERT JUMPDEST POP PUSH2 0x120 PUSH1 0x4 DUP1 CALLDATASIZE SUB DUP2 ADD SWAP1 DUP1 DUP1 CALLDATALOAD PUSH20 0xFFFFFFFFFFFFFFFFFFFFFFFFFFFFFFFFFFFFFFFF AND SWAP1 PUSH1 0x20 ADD SWAP1 SWAP3 SWAP2 SWAP1 POP POP POP PUSH2 0x29A JUMP JUMPDEST PUSH1 0x40 MLOAD DUP1 DUP3 DUP2 MSTORE PUSH1 0x20 ADD SWAP2 POP POP PUSH1 0x40 MLOAD DUP1 SWAP2 SUB SWAP1 RETURN JUMPDEST CALLVALUE DUP1 ISZERO PUSH2 0x142 JUMPI PUSH1 0x0 DUP1 REVERT JUMPDEST POP PUSH2 0x14B PUSH2 0x2E3 JUMP JUMPDEST PUSH1 0x40 MLOAD DUP1 DUP3 DUP2 MSTORE PUSH1 0x20 ADD SWAP2 POP POP PUSH1 0x40 MLOAD DUP1 SWAP2 SUB SWAP1 RETURN JUMPDEST CALLVALUE DUP1 ISZERO PUSH2 0x16D JUMPI PUSH1 0x0 DUP1 REVERT JUMPDEST POP PUSH2 0x176 PUSH2 0x2E9 JUMP JUMPDEST PUSH1 0x40 MLOAD DUP1 DUP3 DUP2 MSTORE PUSH1 0x20 ADD SWAP2 POP POP PUSH1 0x40 MLOAD DUP1 SWAP2 SUB SWAP1 RETURN JUMPDEST CALLVALUE DUP1 ISZERO PUSH2 0x198 JUMPI PUSH1 0x0 DUP1 REVERT JUMPDEST POP PUSH2 0x1D7 PUSH1 0x4 DUP1 CALLDATASIZE SUB DUP2 ADD SWAP1 DUP1 DUP1 CALLDATALOAD PUSH20 0xFFFFFFFFFFFFFFFFFFFFFFFFFFFFFFFFFFFFFFFF AND SWAP1 PUSH1 0x20 ADD SWAP1 SWAP3 SWAP2 SWAP1 DUP1 CALLDATALOAD SWAP1 PUSH1 0x20 ADD SWAP1 SWAP3 SWAP2 SWAP1 POP POP POP PUSH2 0x2EF JUMP JUMPDEST STOP JUMPDEST CALLVALUE DUP1 ISZERO PUSH2 0x1E5 JUMPI PUSH1 0x0 DUP1 REVERT JUMPDEST POP PUSH2 0x224 PUSH1 0x4 DUP1 CALLDATASIZE SUB DUP2 ADD SWAP1 DUP1 DUP1 CALLDATALOAD PUSH20 0xFFFFFFFFFFFFFFFFFFFFFFFFFFFFFFFFFFFFFFFF AND SWAP1 PUSH1 0x20 ADD SWAP1 SWAP3 SWAP2 SWAP1 DUP1 CALLDATALOAD SWAP1 PUSH1 0x20 ADD SWAP1 SWAP3 SWAP2 SWAP1 POP POP POP PUSH2 0x3DF JUMP JUMPDEST STOP JUMPDEST CALLVALUE DUP1 ISZERO PUSH2 0x232 JUMPI PUSH1 0x0 DUP1 REVERT JUMPDEST POP PUSH2 0x23B PUSH2 0x4F2 JUMP JUMPDEST PUSH1 0x40 MLOAD DUP1 DUP3 DUP2 MSTORE PUSH1 0x20 ADD SWAP2 POP POP PUSH1 0x40 MLOAD DUP1 SWAP2 SUB SWAP1 RETURN JUMPDEST PUSH1 0x0 PUSH1 0x4 PUSH1 0x0 DUP4 PUSH20 0xFFFFFFFFFFFFFFFFFFFFFFFFFFFFFFFFFFFFFFFF AND PUSH20 0xFFFFFFFFFFFFFFFFFFFFFFFFFFFFFFFFFFFFFFFF AND DUP2 MSTORE PUSH1 0x20 ADD SWAP1 DUP2 MSTORE PUSH1 0x20 ADD PUSH1 0x0 KECCAK256 SLOAD SWAP1 POP SWAP2 SWAP1 POP JUMP JUMPDEST PUSH1 0x0 PUSH1 0x3 PUSH1 0x0 DUP4 PUSH20 0xFFFFFFFFFFFFFFFFFFFFFFFFFFFFFFFFFFFFFFFF AND PUSH20 0xFFFFFFFFFFFFFFFFFFFFFFFFFFFFFFFFFFFFFFFF AND DUP2 MSTORE PUSH1 0x20 ADD SWAP1 DUP2 MSTORE PUSH1 0x20 ADD PUSH1 0x0 KECCAK256 SLOAD SWAP1 POP SWAP2 SWAP1 POP JUMP JUMPDEST PUSH1 0x1 SLOAD DUP2 JUMP JUMPDEST PUSH1 0x2 SLOAD DUP2 JUMP JUMPDEST DUP1 PUSH1 0x3 PUSH1 0x0 DUP5 PUSH20 0xFFFFFFFFFFFFFFFFFFFFFFFFFFFFFFFFFFFFFFFF AND PUSH20 0xFFFFFFFFFFFFFFFFFFFFFFFFFFFFFFFFFFFFFFFF AND DUP2 MSTORE PUSH1 0x20 ADD SWAP1 DUP2 MSTORE PUSH1 0x20 ADD PUSH1 0x0 KECCAK256 PUSH1 0x0 DUP3 DUP3 SLOAD SUB SWAP3 POP POP DUP2 SWAP1 SSTORE POP PUSH1 0x64 PUSH1 0x3 PUSH1 0x0 DUP5 PUSH20 0xFFFFFFFFFFFFFFFFFFFFFFFFFFFFFFFFFFFFFFFF AND PUSH20 0xFFFFFFFFFFFFFFFFFFFFFFFFFFFFFFFFFFFFFFFF AND DUP2 MSTORE PUSH1 0x20 ADD SWAP1 DUP2 MSTORE PUSH1 0x20 ADD PUSH1 0x0 KECCAK256 SLOAD DUP2 ISZERO ISZERO PUSH2 0x387 JUMPI INVALID JUMPDEST DIV PUSH1 0x4 PUSH1 0x0 DUP5 PUSH20 0xFFFFFFFFFFFFFFFFFFFFFFFFFFFFFFFFFFFFFFFF AND PUSH20 0xFFFFFFFFFFFFFFFFFFFFFFFFFFFFFFFFFFFFFFFF AND DUP2 MSTORE PUSH1 0x20 ADD SWAP1 DUP2 MSTORE PUSH1 0x20 ADD PUSH1 0x0 KECCAK256 DUP2 SWAP1 SSTORE POP DUP1 PUSH1 0x2 PUSH1 0x0 DUP3 DUP3 SLOAD SUB SWAP3 POP POP DUP2 SWAP1 SSTORE POP POP POP JUMP JUMPDEST PUSH1 0x0 DUP2 PUSH1 0x0 SLOAD PUSH1 0x2 SLOAD DUP3 DUP4 MUL ADD GT ISZERO ISZERO ISZERO PUSH2 0x3F9 JUMPI PUSH1 0x0 DUP1 REVERT JUMPDEST PUSH1 0x1 SLOAD DUP4 MUL SWAP2 POP DUP2 PUSH1 0x3 PUSH1 0x0 DUP7 PUSH20 0xFFFFFFFFFFFFFFFFFFFFFFFFFFFFFFFFFFFFFFFF AND PUSH20 0xFFFFFFFFFFFFFFFFFFFFFFFFFFFFFFFFFFFFFFFF AND DUP2 MSTORE PUSH1 0x20 ADD SWAP1 DUP2 MSTORE PUSH1 0x20 ADD PUSH1 0x0 KECCAK256 PUSH1 0x0 DUP3 DUP3 SLOAD ADD SWAP3 POP POP DUP2 SWAP1 SSTORE POP PUSH1 0x64 PUSH1 0x3 PUSH1 0x0 DUP7 PUSH20 0xFFFFFFFFFFFFFFFFFFFFFFFFFFFFFFFFFFFFFFFF AND PUSH20 0xFFFFFFFFFFFFFFFFFFFFFFFFFFFFFFFFFFFFFFFF AND DUP2 MSTORE PUSH1 0x20 ADD SWAP1 DUP2 MSTORE PUSH1 0x20 ADD PUSH1 0x0 KECCAK256 SLOAD DUP2 ISZERO ISZERO PUSH2 0x498 JUMPI INVALID JUMPDEST DIV PUSH1 0x4 PUSH1 0x0 DUP7 PUSH20 0xFFFFFFFFFFFFFFFFFFFFFFFFFFFFFFFFFFFFFFFF AND PUSH20 0xFFFFFFFFFFFFFFFFFFFFFFFFFFFFFFFFFFFFFFFF AND DUP2 MSTORE PUSH1 0x20 ADD SWAP1 DUP2 MSTORE PUSH1 0x20 ADD PUSH1 0x0 KECCAK256 DUP2 SWAP1 SSTORE POP DUP2 PUSH1 0x2 PUSH1 0x0 DUP3 DUP3 SLOAD ADD SWAP3 POP POP DUP2 SWAP1 SSTORE POP POP POP POP POP JUMP JUMPDEST PUSH1 0x0 SLOAD DUP2 JUMP STOP LOG1 PUSH6 0x627A7A723058 KECCAK256 0xd3 0xf6 DUP12 0xd0 RETURN CREATE SHL NOT 0xbd DUP4 MSIZE DUP11 AND ADDRESS 0xec 0x23 PUSH31 0xA136667F3E815CD05D6D922A2DD93000290000000000000000000000000000 "
				},
				"gasEstimates": {
					"creation": {
						"codeDepositCost": "263200",
						"executionCost": "45324",
						"totalCost": "308524"
					},
					"external": {
						"buy_bigmcoins(address,uint256)": "61989",
						"equity_in_bigmcoins(address)": "581",
						"equity_in_usd(address)": "559",
						"max_bigmcoins()": "526",
						"sell_bigmcoins(address,uint256)": "61295",
						"total_bigmcoins_bought()": "460",
						"usd_to_bigmcoins()": "438"
					}
				},
				"methodIdentifiers": {
					"buy_bigmcoins(address,uint256)": "8eb81a0c",
					"equity_in_bigmcoins(address)": "2421e7ba",
					"equity_in_usd(address)": "10c51c1b",
					"max_bigmcoins()": "a9726e5c",
					"sell_bigmcoins(address,uint256)": "887fefe3",
					"total_bigmcoins_bought()": "43b207a5",
					"usd_to_bigmcoins()": "3f7d67d5"
				}
			},
			"userdoc": {
				"methods": {}
			}
		}
	}
}